:020000040800F2
:100000000020002075020008C5020008C502000893
:10001000C5020008C5020008C50200080000000073
:10002000000000000000000000000000C502000801
:10003000C502000800000000C5020008C502000853
:10004000C5020008C5020008C5020008C502000874
:10005000C5020008C5020008C5020008C502000864
:10006000C5020008C5020008C5020008C502000854
:10007000C5020008C5020008C5020008C502000844
:10008000C5020008C5020008C5020008C502000834
:10009000C5020008C5020008C5020008C502000824
:1000A000C5020008C5020008C5020008C502000814
:1000B000C5020008C5020008C5020008C502000804
:1000C000C5020008C5020008C5020008C5020008F4
:1000D000C5020008C5020008C5020008C5020008E4
:1000E000C5020008C5020008C5020008C5020008D4
:1000F000C502000800000000000000000000000031
:0C01000000000000000000005FF808F1A3
:10010C0082B000230093009B834205DA019B0133EC
:10011C000193009B0133F5E702B070470A4B0221B3
:10012C00DA6910B50A43DA61084BA0221968D201CA
:10013C000A431A601C1C636980229BB25340A38241
:10014C000348FFF7DDFFF6E70038024000040240E9
:10015C0050C300003C4B37B51968802252000A434B
:10016C001A609968394A0A409A601968384A0A40F4
:10017C001A601968374A0A401A609A6836490A4068
:10018C009A600022DA600092019218688022520272
:10019C0002431A60081C19688022920211400191D6
:1001AC000099013100910199002904D1009CA021F2
:1001BC00C9008C42EFD119680A4000D0012201928B
:1001CC000199012904D0254B802212059A6037BD74
:1001DC00234A042514682C431460146802252C430C
:1001EC001460146821431160596A802252050A4335
:1001FC005A6280211B4A090111605168CC06FCD45B
:10020C009A689A609A689A609A689A60996891223A
:10021C0001409960996812040A439A601968802217
:10022C0052040A431A601968074A8801FBD5906882
:10023C0003218843906090680143916099680C2277
:10024C000A400C2AFAD1BEE7003802400CC0FF88E5
:10025C00FEFFFEEEFFFFFBFFFFFF02FF00ED00E0E5
:10026C00003C024000700040002100F004B80D4B2F
:10027C005B58435004310C480C4B42189A42FFF423
:10028C00F6AF0B4A00F003B8002342F8043B094BCD
:10029C009A42FFF4F9AFFFF75DFF00F00FF8FFF79C
:1002AC003DFF7047280300080000002000000020DC
:1002BC000000002000000020FFF7FEBF70B50D4EBF
:1002CC000D4D0024AD1BAD1005D0A300F358013427
:1002DC009847A542F9D100F015F8084E084D0024B6
:1002EC00AD1BAD1005D0A300F35801349847A542BF
:1002FC00F9D170BD000000000000000000000000FB
:10030C0000000000F8B5C046F8BC08BC9E4670471B
:0C031C00F8B5C046F8BC08BC9E4670470F
:040000050800027578
:00000001FF
